{
  "_format": "hh-sol-artifact-1",
  "contractName": "agriBoraStore",
  "sourceName": "contracts/agriBoraStore.sol",
  "abi": [
    {
      "inputs": [
        {
          "internalType": "address",
          "name": "agriBora",
          "type": "address"
        }
      ],
      "stateMutability": "nonpayable",
      "type": "constructor"
    },
    {
      "inputs": [
        {
          "internalType": "string",
          "name": "name",
          "type": "string"
        },
        {
          "internalType": "string",
          "name": "phone",
          "type": "string"
        }
      ],
      "name": "addFarm",
      "outputs": [],
      "stateMutability": "nonpayable",
      "type": "function"
    },
    {
      "inputs": [
        {
          "internalType": "string",
          "name": "name",
          "type": "string"
        },
        {
          "internalType": "uint256",
          "name": "cost",
          "type": "uint256"
        },
        {
          "internalType": "string",
          "name": "farmSize",
          "type": "string"
        }
      ],
      "name": "addProduce",
      "outputs": [],
      "stateMutability": "nonpayable",
      "type": "function"
    },
    {
      "inputs": [],
      "name": "agriBoraAddress",
      "outputs": [
        {
          "internalType": "address",
          "name": "",
          "type": "address"
        }
      ],
      "stateMutability": "view",
      "type": "function"
    },
    {
      "inputs": [
        {
          "internalType": "string",
          "name": "phone",
          "type": "string"
        }
      ],
      "name": "getFarm",
      "outputs": [
        {
          "components": [
            {
              "internalType": "string",
              "name": "name",
              "type": "string"
            },
            {
              "internalType": "string",
              "name": "phone",
              "type": "string"
            },
            {
              "internalType": "uint256",
              "name": "balance",
              "type": "uint256"
            }
          ],
          "internalType": "struct agriBoraStore.Farm",
          "name": "",
          "type": "tuple"
        }
      ],
      "stateMutability": "view",
      "type": "function"
    },
    {
      "inputs": [
        {
          "internalType": "uint256",
          "name": "date",
          "type": "uint256"
        }
      ],
      "name": "getInsured",
      "outputs": [
        {
          "components": [
            {
              "internalType": "string",
              "name": "name",
              "type": "string"
            },
            {
              "internalType": "string",
              "name": "phone",
              "type": "string"
            }
          ],
          "internalType": "struct agriBoraStore.InsureProduce[]",
          "name": "",
          "type": "tuple[]"
        }
      ],
      "stateMutability": "view",
      "type": "function"
    },
    {
      "inputs": [
        {
          "internalType": "string",
          "name": "phone",
          "type": "string"
        }
      ],
      "name": "getLoanProduce",
      "outputs": [
        {
          "components": [
            {
              "internalType": "string",
              "name": "name",
              "type": "string"
            },
            {
              "internalType": "uint256",
              "name": "cost",
              "type": "uint256"
            },
            {
              "internalType": "string",
              "name": "farmSize",
              "type": "string"
            }
          ],
          "internalType": "struct agriBoraStore.Produce",
          "name": "",
          "type": "tuple"
        }
      ],
      "stateMutability": "view",
      "type": "function"
    },
    {
      "inputs": [
        {
          "internalType": "string",
          "name": "name",
          "type": "string"
        }
      ],
      "name": "getProduce",
      "outputs": [
        {
          "components": [
            {
              "internalType": "string",
              "name": "name",
              "type": "string"
            },
            {
              "internalType": "uint256",
              "name": "cost",
              "type": "uint256"
            },
            {
              "internalType": "string",
              "name": "farmSize",
              "type": "string"
            }
          ],
          "internalType": "struct agriBoraStore.Produce",
          "name": "",
          "type": "tuple"
        }
      ],
      "stateMutability": "view",
      "type": "function"
    },
    {
      "inputs": [
        {
          "internalType": "string",
          "name": "phone",
          "type": "string"
        },
        {
          "internalType": "string",
          "name": "name",
          "type": "string"
        },
        {
          "internalType": "uint256",
          "name": "date",
          "type": "uint256"
        }
      ],
      "name": "insureFarm",
      "outputs": [],
      "stateMutability": "nonpayable",
      "type": "function"
    },
    {
      "inputs": [
        {
          "internalType": "string",
          "name": "phone",
          "type": "string"
        },
        {
          "internalType": "string",
          "name": "item",
          "type": "string"
        }
      ],
      "name": "loanProduce",
      "outputs": [],
      "stateMutability": "nonpayable",
      "type": "function"
    },
    {
      "inputs": [
        {
          "internalType": "address",
          "name": "investor",
          "type": "address"
        },
        {
          "internalType": "uint256",
          "name": "amount",
          "type": "uint256"
        }
      ],
      "name": "lockInvestment",
      "outputs": [],
      "stateMutability": "nonpayable",
      "type": "function"
    },
    {
      "inputs": [],
      "name": "owner",
      "outputs": [
        {
          "internalType": "address",
          "name": "",
          "type": "address"
        }
      ],
      "stateMutability": "view",
      "type": "function"
    },
    {
      "inputs": [
        {
          "internalType": "uint256",
          "name": "date",
          "type": "uint256"
        }
      ],
      "name": "payoutInsured",
      "outputs": [],
      "stateMutability": "nonpayable",
      "type": "function"
    },
    {
      "inputs": [
        {
          "internalType": "string",
          "name": "phone",
          "type": "string"
        },
        {
          "internalType": "string",
          "name": "name",
          "type": "string"
        },
        {
          "internalType": "uint256",
          "name": "weight",
          "type": "uint256"
        }
      ],
      "name": "sellProduce",
      "outputs": [],
      "stateMutability": "nonpayable",
      "type": "function"
    },
    {
      "inputs": [
        {
          "internalType": "string",
          "name": "",
          "type": "string"
        }
      ],
      "name": "stock",
      "outputs": [
        {
          "internalType": "string",
          "name": "name",
          "type": "string"
        },
        {
          "internalType": "uint256",
          "name": "cost",
          "type": "uint256"
        },
        {
          "internalType": "string",
          "name": "farmSize",
          "type": "string"
        }
      ],
      "stateMutability": "view",
      "type": "function"
    },
    {
      "inputs": [
        {
          "internalType": "address",
          "name": "investor",
          "type": "address"
        },
        {
          "internalType": "uint256",
          "name": "amount",
          "type": "uint256"
        }
      ],
      "name": "unLockInvestment",
      "outputs": [],
      "stateMutability": "nonpayable",
      "type": "function"
    },
    {
      "inputs": [
        {
          "internalType": "string",
          "name": "phone",
          "type": "string"
        },
        {
          "internalType": "uint256",
          "name": "amount",
          "type": "uint256"
        }
      ],
      "name": "withdrawAmount",
      "outputs": [],
      "stateMutability": "nonpayable",
      "type": "function"
    },
    {
      "inputs": [
        {
          "internalType": "string",
          "name": "phone",
          "type": "string"
        }
      ],
      "name": "withdrawProduces",
      "outputs": [],
      "stateMutability": "nonpayable",
      "type": "function"
    }
  ],
  "bytecode": "0x60806040523480156200001157600080fd5b5060405162002146380380620021468339818101604052810190620000379190620000d6565b336000806101000a81548173ffffffffffffffffffffffffffffffffffffffff021916908373ffffffffffffffffffffffffffffffffffffffff16021790555080600160006101000a81548173ffffffffffffffffffffffffffffffffffffffff021916908373ffffffffffffffffffffffffffffffffffffffff1602179055505062000150565b600081519050620000d08162000136565b92915050565b600060208284031215620000e957600080fd5b6000620000f984828501620000bf565b91505092915050565b60006200010f8262000116565b9050919050565b600073ffffffffffffffffffffffffffffffffffffffff82169050919050565b620001418162000102565b81146200014d57600080fd5b50565b611fe680620001606000396000f3fe608060405234801561001057600080fd5b506004361061010b5760003560e01c80639b04534a116100a2578063ddf2402511610071578063ddf240251461028c578063df7bba1d146102bc578063e2ebec7f146102d8578063e40ba0c014610308578063fd9908e3146103245761010b565b80639b04534a1461021c578063a042995e14610238578063b76c115114610254578063c097a553146102705761010b565b80635a9645d5116100de5780635a9645d5146101965780637fd60a35146101b2578063829c6257146101e25780638da5cb5b146101fe5761010b565b806316f59a3f146101105780632b4b5c671461012c5780633a057fcd146101485780634b87ecae14610166575b600080fd5b61012a600480360381019061012591906116b7565b610356565b005b6101466004803603810190610141919061170b565b6103cd565b005b610150610452565b60405161015d9190611aab565b60405180910390f35b610180600480360381019061017b919061158b565b610478565b60405161018d9190611b56565b60405180910390f35b6101b060048036038101906101ab919061158b565b6105de565b005b6101cc60048036038101906101c7919061158b565b610659565b6040516101d99190611b78565b60405180910390f35b6101fc60048036038101906101f7919061154f565b6107bf565b005b61020661088b565b6040516102139190611aab565b60405180910390f35b610236600480360381019061023191906115cc565b6108af565b005b610252600480360381019061024d919061154f565b610934565b005b61026e60048036038101906102699190611638565b610a00565b005b61028a6004803603810190610285919061178a565b610aef565b005b6102a660048036038101906102a1919061158b565b610ccf565b6040516102b39190611b78565b60405180910390f35b6102d660048036038101906102d191906115cc565b610e35565b005b6102f260048036038101906102ed919061178a565b610f1f565b6040516102ff9190611aef565b60405180910390f35b610322600480360381019061031d9190611638565b6110b5565b005b61033e6004803603810190610339919061158b565b611160565b60405161034d93929190611b11565b60405180910390f35b6000811161036357600080fd5b806002836040516103749190611a7d565b908152602001604051809103902060020154101561039157600080fd5b806002836040516103a29190611a7d565b908152602001604051809103902060020160008282546103c29190611d57565b925050819055505050565b6040518060600160405280848152602001838152602001828152506004846040516103f89190611a7d565b908152602001604051809103902060008201518160000190805190602001906104229291906112b0565b506020820151816001015560408201518160020190805190602001906104499291906112b0565b50905050505050565b600160009054906101000a900473ffffffffffffffffffffffffffffffffffffffff1681565b610480611336565b6002826040516104909190611a7d565b90815260200160405180910390206040518060600160405290816000820180546104b990611e09565b80601f01602080910402602001604051908101604052809291908181526020018280546104e590611e09565b80156105325780601f1061050757610100808354040283529160200191610532565b820191906000526020600020905b81548152906001019060200180831161051557829003601f168201915b5050505050815260200160018201805461054b90611e09565b80601f016020809104026020016040519081016040528092919081815260200182805461057790611e09565b80156105c45780601f10610599576101008083540402835291602001916105c4565b820191906000526020600020905b8154815290600101906020018083116105a757829003601f168201915b505050505081526020016002820154815250509050919050565b60006003826040516105f09190611a7d565b908152602001604051809103902060010154141561060d57600080fd5b60038160405161061d9190611a7d565b90815260200160405180910390206000808201600061063c9190611357565b60018201600090556002820160006106549190611357565b505050565b610661611397565b6003826040516106719190611a7d565b908152602001604051809103902060405180606001604052908160008201805461069a90611e09565b80601f01602080910402602001604051908101604052809291908181526020018280546106c690611e09565b80156107135780601f106106e857610100808354040283529160200191610713565b820191906000526020600020905b8154815290600101906020018083116106f657829003601f168201915b505050505081526020016001820154815260200160028201805461073690611e09565b80601f016020809104026020016040519081016040528092919081815260200182805461076290611e09565b80156107af5780601f10610784576101008083540402835291602001916107af565b820191906000526020600020905b81548152906001019060200180831161079257829003601f168201915b5050505050815250509050919050565b3373ffffffffffffffffffffffffffffffffffffffff168273ffffffffffffffffffffffffffffffffffffffff1614156107f857600080fd5b600160009054906101000a900473ffffffffffffffffffffffffffffffffffffffff1673ffffffffffffffffffffffffffffffffffffffff1663d1df306c83836040518363ffffffff1660e01b8152600401610855929190611ac6565b600060405180830381600087803b15801561086f57600080fd5b505af1158015610883573d6000803e3d6000fd5b505050505050565b60008054906101000a900473ffffffffffffffffffffffffffffffffffffffff1681565b604051806060016040528083815260200182815260200160008152506002826040516108db9190611a7d565b908152602001604051809103902060008201518160000190805190602001906109059291906112b0565b5060208201518160010190805190602001906109229291906112b0565b50604082015181600201559050505050565b3373ffffffffffffffffffffffffffffffffffffffff168273ffffffffffffffffffffffffffffffffffffffff16141561096d57600080fd5b600160009054906101000a900473ffffffffffffffffffffffffffffffffffffffff1673ffffffffffffffffffffffffffffffffffffffff166379c6506883836040518363ffffffff1660e01b81526004016109ca929190611ac6565b600060405180830381600087803b1580156109e457600080fd5b505af11580156109f8573d6000803e3d6000fd5b505050505050565b6000600284604051610a129190611a7d565b90815260200160405180910390206002015414610a2e57600080fd5b6000600483604051610a409190611a7d565b9081526020016040518091039020600101541415610a5d57600080fd5b6005600082815260200190815260200160002060405180604001604052808481526020018581525090806001815401808255809150506001900390600052602060002090600202016000909190919091506000820151816000019080519060200190610aca9291906112b0565b506020820151816001019080519060200190610ae79291906112b0565b505050505050565b6000600560008381526020019081526020016000208054905011610b1257600080fd5b62278d006103e882610b249190611ccc565b610b2e9190611c76565b4211610b3957600080fd5b60005b6005600083815260200190815260200160002080549050811015610cac576004600560008481526020019081526020016000208281548110610ba7577f4e487b7100000000000000000000000000000000000000000000000000000000600052603260045260246000fd5b9060005260206000209060020201600001604051610bc59190611a94565b90815260200160405180910390206003600560008581526020019081526020016000208381548110610c20577f4e487b7100000000000000000000000000000000000000000000000000000000600052603260045260246000fd5b9060005260206000209060020201600101604051610c3e9190611a94565b90815260200160405180910390206000820181600001908054610c6090611e09565b610c6b9291906113b8565b50600182015481600101556002820181600201908054610c8a90611e09565b610c959291906113b8565b509050508080610ca490611e6c565b915050610b3c565b50600560008281526020019081526020016000206000610ccc9190611445565b50565b610cd7611397565b600482604051610ce79190611a7d565b9081526020016040518091039020604051806060016040529081600082018054610d1090611e09565b80601f0160208091040260200160405190810160405280929190818152602001828054610d3c90611e09565b8015610d895780601f10610d5e57610100808354040283529160200191610d89565b820191906000526020600020905b815481529060010190602001808311610d6c57829003601f168201915b5050505050815260200160018201548152602001600282018054610dac90611e09565b80601f0160208091040260200160405190810160405280929190818152602001828054610dd890611e09565b8015610e255780601f10610dfa57610100808354040283529160200191610e25565b820191906000526020600020905b815481529060010190602001808311610e0857829003601f168201915b5050505050815250509050919050565b6000600482604051610e479190611a7d565b9081526020016040518091039020600101541415610e6457600080fd5b6000600383604051610e769190611a7d565b90815260200160405180910390206001015414610e9257600080fd5b600481604051610ea29190611a7d565b9081526020016040518091039020600383604051610ec09190611a7d565b90815260200160405180910390206000820181600001908054610ee290611e09565b610eed9291906113b8565b50600182015481600101556002820181600201908054610f0c90611e09565b610f179291906113b8565b509050505050565b606060056000838152602001908152602001600020805480602002602001604051908101604052809291908181526020016000905b828210156110aa5783829060005260206000209060020201604051806040016040529081600082018054610f8790611e09565b80601f0160208091040260200160405190810160405280929190818152602001828054610fb390611e09565b80156110005780601f10610fd557610100808354040283529160200191611000565b820191906000526020600020905b815481529060010190602001808311610fe357829003601f168201915b5050505050815260200160018201805461101990611e09565b80601f016020809104026020016040519081016040528092919081815260200182805461104590611e09565b80156110925780601f1061106757610100808354040283529160200191611092565b820191906000526020600020905b81548152906001019060200180831161107557829003601f168201915b50505050508152505081526020019060010190610f54565b505050509050919050565b600081116110c257600080fd5b60006004836040516110d49190611a7d565b90815260200160405180910390206001015410156110f157600080fd5b6000816004846040516111049190611a7d565b9081526020016040518091039020600101546111209190611cfd565b9050806002856040516111339190611a7d565b908152602001604051809103902060020160008282546111539190611c76565b9250508190555050505050565b60048180516020810182018051848252602083016020850120818352809550505050505060009150905080600001805461119990611e09565b80601f01602080910402602001604051908101604052809291908181526020018280546111c590611e09565b80156112125780601f106111e757610100808354040283529160200191611212565b820191906000526020600020905b8154815290600101906020018083116111f557829003601f168201915b50505050509080600101549080600201805461122d90611e09565b80601f016020809104026020016040519081016040528092919081815260200182805461125990611e09565b80156112a65780601f1061127b576101008083540402835291602001916112a6565b820191906000526020600020905b81548152906001019060200180831161128957829003601f168201915b5050505050905083565b8280546112bc90611e09565b90600052602060002090601f0160209004810192826112de5760008555611325565b82601f106112f757805160ff1916838001178555611325565b82800160010185558215611325579182015b82811115611324578251825591602001919060010190611309565b5b5090506113329190611469565b5090565b60405180606001604052806060815260200160608152602001600081525090565b50805461136390611e09565b6000825580601f106113755750611394565b601f0160209004906000526020600020908101906113939190611469565b5b50565b60405180606001604052806060815260200160008152602001606081525090565b8280546113c490611e09565b90600052602060002090601f0160209004810192826113e65760008555611434565b82601f106113f75780548555611434565b8280016001018555821561143457600052602060002091601f016020900482015b82811115611433578254825591600101919060010190611418565b5b5090506114419190611469565b5090565b50805460008255600202906000526020600020908101906114669190611486565b50565b5b8082111561148257600081600090555060010161146a565b5090565b5b808211156114b957600080820160006114a09190611357565b6001820160006114b09190611357565b50600201611487565b5090565b60006114d06114cb84611bbf565b611b9a565b9050828152602081018484840111156114e857600080fd5b6114f3848285611dc7565b509392505050565b60008135905061150a81611f82565b92915050565b600082601f83011261152157600080fd5b81356115318482602086016114bd565b91505092915050565b60008135905061154981611f99565b92915050565b6000806040838503121561156257600080fd5b6000611570858286016114fb565b92505060206115818582860161153a565b9150509250929050565b60006020828403121561159d57600080fd5b600082013567ffffffffffffffff8111156115b757600080fd5b6115c384828501611510565b91505092915050565b600080604083850312156115df57600080fd5b600083013567ffffffffffffffff8111156115f957600080fd5b61160585828601611510565b925050602083013567ffffffffffffffff81111561162257600080fd5b61162e85828601611510565b9150509250929050565b60008060006060848603121561164d57600080fd5b600084013567ffffffffffffffff81111561166757600080fd5b61167386828701611510565b935050602084013567ffffffffffffffff81111561169057600080fd5b61169c86828701611510565b92505060406116ad8682870161153a565b9150509250925092565b600080604083850312156116ca57600080fd5b600083013567ffffffffffffffff8111156116e457600080fd5b6116f085828601611510565b92505060206117018582860161153a565b9150509250929050565b60008060006060848603121561172057600080fd5b600084013567ffffffffffffffff81111561173a57600080fd5b61174686828701611510565b93505060206117578682870161153a565b925050604084013567ffffffffffffffff81111561177457600080fd5b61178086828701611510565b9150509250925092565b60006020828403121561179c57600080fd5b60006117aa8482850161153a565b91505092915050565b60006117bf83836119c4565b905092915050565b6117d081611d8b565b82525050565b60006117e182611c15565b6117eb8185611c38565b9350836020820285016117fd85611bf0565b8060005b85811015611839578484038952815161181a85826117b3565b945061182583611c2b565b925060208a01995050600181019050611801565b50829750879550505050505092915050565b600061185682611c20565b6118608185611c49565b9350611870818560208601611dd6565b61187981611f71565b840191505092915050565b600061188f82611c20565b6118998185611c5a565b93506118a9818560208601611dd6565b6118b281611f71565b840191505092915050565b60006118c882611c20565b6118d28185611c6b565b93506118e2818560208601611dd6565b80840191505092915050565b600081546118fb81611e09565b6119058186611c6b565b94506001821660008114611920576001811461193157611964565b60ff19831686528186019350611964565b61193a85611c00565b60005b8381101561195c5781548189015260018201915060208101905061193d565b838801955050505b50505092915050565b6000606083016000830151848203600086015261198a828261184b565b915050602083015184820360208601526119a4828261184b565b91505060408301516119b96040860182611a5f565b508091505092915050565b600060408301600083015184820360008601526119e1828261184b565b915050602083015184820360208601526119fb828261184b565b9150508091505092915050565b60006060830160008301518482036000860152611a25828261184b565b9150506020830151611a3a6020860182611a5f565b5060408301518482036040860152611a52828261184b565b9150508091505092915050565b611a6881611dbd565b82525050565b611a7781611dbd565b82525050565b6000611a8982846118bd565b915081905092915050565b6000611aa082846118ee565b915081905092915050565b6000602082019050611ac060008301846117c7565b92915050565b6000604082019050611adb60008301856117c7565b611ae86020830184611a6e565b9392505050565b60006020820190508181036000830152611b0981846117d6565b905092915050565b60006060820190508181036000830152611b2b8186611884565b9050611b3a6020830185611a6e565b8181036040830152611b4c8184611884565b9050949350505050565b60006020820190508181036000830152611b70818461196d565b905092915050565b60006020820190508181036000830152611b928184611a08565b905092915050565b6000611ba4611bb5565b9050611bb08282611e3b565b919050565b6000604051905090565b600067ffffffffffffffff821115611bda57611bd9611f42565b5b611be382611f71565b9050602081019050919050565b6000819050602082019050919050565b60008190508160005260206000209050919050565b600081519050919050565b600081519050919050565b6000602082019050919050565b600082825260208201905092915050565b600082825260208201905092915050565b600082825260208201905092915050565b600081905092915050565b6000611c8182611dbd565b9150611c8c83611dbd565b9250827fffffffffffffffffffffffffffffffffffffffffffffffffffffffffffffffff03821115611cc157611cc0611eb5565b5b828201905092915050565b6000611cd782611dbd565b9150611ce283611dbd565b925082611cf257611cf1611ee4565b5b828204905092915050565b6000611d0882611dbd565b9150611d1383611dbd565b9250817fffffffffffffffffffffffffffffffffffffffffffffffffffffffffffffffff0483118215151615611d4c57611d4b611eb5565b5b828202905092915050565b6000611d6282611dbd565b9150611d6d83611dbd565b925082821015611d8057611d7f611eb5565b5b828203905092915050565b6000611d9682611d9d565b9050919050565b600073ffffffffffffffffffffffffffffffffffffffff82169050919050565b6000819050919050565b82818337600083830152505050565b60005b83811015611df4578082015181840152602081019050611dd9565b83811115611e03576000848401525b50505050565b60006002820490506001821680611e2157607f821691505b60208210811415611e3557611e34611f13565b5b50919050565b611e4482611f71565b810181811067ffffffffffffffff82111715611e6357611e62611f42565b5b80604052505050565b6000611e7782611dbd565b91507fffffffffffffffffffffffffffffffffffffffffffffffffffffffffffffffff821415611eaa57611ea9611eb5565b5b600182019050919050565b7f4e487b7100000000000000000000000000000000000000000000000000000000600052601160045260246000fd5b7f4e487b7100000000000000000000000000000000000000000000000000000000600052601260045260246000fd5b7f4e487b7100000000000000000000000000000000000000000000000000000000600052602260045260246000fd5b7f4e487b7100000000000000000000000000000000000000000000000000000000600052604160045260246000fd5b6000601f19601f8301169050919050565b611f8b81611d8b565b8114611f9657600080fd5b50565b611fa281611dbd565b8114611fad57600080fd5b5056fea26469706673582212207ad19850223a8eb38d0e122bb6d6d4bfb5d934f4a03a561e2c47cfd3f22a2ef664736f6c63430008040033",
  "linkReferences": {},
  "deployedLinkReferences": {}
}