{
  "_format": "hh-sol-artifact-1",
  "contractName": "agriBora",
  "sourceName": "contracts/agriBora.sol",
  "abi": [
    {
      "inputs": [
        {
          "internalType": "uint256",
          "name": "initialSupply",
          "type": "uint256"
        }
      ],
      "stateMutability": "nonpayable",
      "type": "constructor"
    },
    {
      "anonymous": false,
      "inputs": [
        {
          "indexed": true,
          "internalType": "address",
          "name": "owner",
          "type": "address"
        },
        {
          "indexed": true,
          "internalType": "address",
          "name": "spender",
          "type": "address"
        },
        {
          "indexed": false,
          "internalType": "uint256",
          "name": "value",
          "type": "uint256"
        }
      ],
      "name": "Approval",
      "type": "event"
    },
    {
      "anonymous": false,
      "inputs": [
        {
          "indexed": true,
          "internalType": "address",
          "name": "from",
          "type": "address"
        },
        {
          "indexed": true,
          "internalType": "address",
          "name": "to",
          "type": "address"
        },
        {
          "indexed": false,
          "internalType": "uint256",
          "name": "value",
          "type": "uint256"
        }
      ],
      "name": "Transfer",
      "type": "event"
    },
    {
      "inputs": [
        {
          "internalType": "address",
          "name": "owner",
          "type": "address"
        },
        {
          "internalType": "address",
          "name": "spender",
          "type": "address"
        }
      ],
      "name": "allowance",
      "outputs": [
        {
          "internalType": "uint256",
          "name": "",
          "type": "uint256"
        }
      ],
      "stateMutability": "view",
      "type": "function"
    },
    {
      "inputs": [
        {
          "internalType": "address",
          "name": "spender",
          "type": "address"
        },
        {
          "internalType": "uint256",
          "name": "amount",
          "type": "uint256"
        }
      ],
      "name": "approve",
      "outputs": [
        {
          "internalType": "bool",
          "name": "",
          "type": "bool"
        }
      ],
      "stateMutability": "nonpayable",
      "type": "function"
    },
    {
      "inputs": [
        {
          "internalType": "address",
          "name": "account",
          "type": "address"
        }
      ],
      "name": "balanceOf",
      "outputs": [
        {
          "internalType": "uint256",
          "name": "",
          "type": "uint256"
        }
      ],
      "stateMutability": "view",
      "type": "function"
    },
    {
      "inputs": [
        {
          "internalType": "address",
          "name": "from",
          "type": "address"
        },
        {
          "internalType": "uint256",
          "name": "amount",
          "type": "uint256"
        }
      ],
      "name": "burnToken",
      "outputs": [],
      "stateMutability": "nonpayable",
      "type": "function"
    },
    {
      "inputs": [],
      "name": "decimals",
      "outputs": [
        {
          "internalType": "uint8",
          "name": "",
          "type": "uint8"
        }
      ],
      "stateMutability": "view",
      "type": "function"
    },
    {
      "inputs": [
        {
          "internalType": "address",
          "name": "spender",
          "type": "address"
        },
        {
          "internalType": "uint256",
          "name": "subtractedValue",
          "type": "uint256"
        }
      ],
      "name": "decreaseAllowance",
      "outputs": [
        {
          "internalType": "bool",
          "name": "",
          "type": "bool"
        }
      ],
      "stateMutability": "nonpayable",
      "type": "function"
    },
    {
      "inputs": [
        {
          "internalType": "address",
          "name": "spender",
          "type": "address"
        },
        {
          "internalType": "uint256",
          "name": "addedValue",
          "type": "uint256"
        }
      ],
      "name": "increaseAllowance",
      "outputs": [
        {
          "internalType": "bool",
          "name": "",
          "type": "bool"
        }
      ],
      "stateMutability": "nonpayable",
      "type": "function"
    },
    {
      "inputs": [
        {
          "internalType": "address",
          "name": "to",
          "type": "address"
        },
        {
          "internalType": "uint256",
          "name": "amount",
          "type": "uint256"
        }
      ],
      "name": "mintToken",
      "outputs": [],
      "stateMutability": "nonpayable",
      "type": "function"
    },
    {
      "inputs": [],
      "name": "name",
      "outputs": [
        {
          "internalType": "string",
          "name": "",
          "type": "string"
        }
      ],
      "stateMutability": "view",
      "type": "function"
    },
    {
      "inputs": [],
      "name": "symbol",
      "outputs": [
        {
          "internalType": "string",
          "name": "",
          "type": "string"
        }
      ],
      "stateMutability": "view",
      "type": "function"
    },
    {
      "inputs": [],
      "name": "totalSupply",
      "outputs": [
        {
          "internalType": "uint256",
          "name": "",
          "type": "uint256"
        }
      ],
      "stateMutability": "view",
      "type": "function"
    },
    {
      "inputs": [
        {
          "internalType": "address",
          "name": "to",
          "type": "address"
        },
        {
          "internalType": "uint256",
          "name": "amount",
          "type": "uint256"
        }
      ],
      "name": "transfer",
      "outputs": [
        {
          "internalType": "bool",
          "name": "",
          "type": "bool"
        }
      ],
      "stateMutability": "nonpayable",
      "type": "function"
    },
    {
      "inputs": [
        {
          "internalType": "address",
          "name": "from",
          "type": "address"
        },
        {
          "internalType": "address",
          "name": "to",
          "type": "address"
        },
        {
          "internalType": "uint256",
          "name": "amount",
          "type": "uint256"
        }
      ],
      "name": "transferFrom",
      "outputs": [
        {
          "internalType": "bool",
          "name": "",
          "type": "bool"
        }
      ],
      "stateMutability": "nonpayable",
      "type": "function"
    }
  ],
  "bytecode": "0x60806040523480156200001157600080fd5b5060405162001e9838038062001e9883398181016040528101906200003791906200033a565b6040518060400160405280600881526020017f61677269426f72610000000000000000000000000000000000000000000000008152506040518060400160405280600381526020017f41424300000000000000000000000000000000000000000000000000000000008152508160039080519060200190620000bb92919062000273565b508060049080519060200190620000d492919062000273565b505050620000e93382620000f060201b60201c565b506200052c565b600073ffffffffffffffffffffffffffffffffffffffff168273ffffffffffffffffffffffffffffffffffffffff16141562000163576040517f08c379a00000000000000000000000000000000000000000000000000000000081526004016200015a906200039e565b60405180910390fd5b62000177600083836200026960201b60201c565b80600260008282546200018b9190620003ee565b92505081905550806000808473ffffffffffffffffffffffffffffffffffffffff1673ffffffffffffffffffffffffffffffffffffffff1681526020019081526020016000206000828254620001e29190620003ee565b925050819055508173ffffffffffffffffffffffffffffffffffffffff16600073ffffffffffffffffffffffffffffffffffffffff167fddf252ad1be2c89b69c2b068fc378daa952ba7f163c4a11628f55a4df523b3ef83604051620002499190620003c0565b60405180910390a362000265600083836200026e60201b60201c565b5050565b505050565b505050565b828054620002819062000455565b90600052602060002090601f016020900481019282620002a55760008555620002f1565b82601f10620002c057805160ff1916838001178555620002f1565b82800160010185558215620002f1579182015b82811115620002f0578251825591602001919060010190620002d3565b5b50905062000300919062000304565b5090565b5b808211156200031f57600081600090555060010162000305565b5090565b600081519050620003348162000512565b92915050565b6000602082840312156200034d57600080fd5b60006200035d8482850162000323565b91505092915050565b600062000375601f83620003dd565b91506200038282620004e9565b602082019050919050565b62000398816200044b565b82525050565b60006020820190508181036000830152620003b98162000366565b9050919050565b6000602082019050620003d760008301846200038d565b92915050565b600082825260208201905092915050565b6000620003fb826200044b565b915062000408836200044b565b9250827fffffffffffffffffffffffffffffffffffffffffffffffffffffffffffffffff0382111562000440576200043f6200048b565b5b828201905092915050565b6000819050919050565b600060028204905060018216806200046e57607f821691505b60208210811415620004855762000484620004ba565b5b50919050565b7f4e487b7100000000000000000000000000000000000000000000000000000000600052601160045260246000fd5b7f4e487b7100000000000000000000000000000000000000000000000000000000600052602260045260246000fd5b7f45524332303a206d696e7420746f20746865207a65726f206164647265737300600082015250565b6200051d816200044b565b81146200052957600080fd5b50565b61195c806200053c6000396000f3fe608060405234801561001057600080fd5b50600436106100cf5760003560e01c806370a082311161008c578063a457c2d711610066578063a457c2d714610228578063a9059cbb14610258578063d1df306c14610288578063dd62ed3e146102a4576100cf565b806370a08231146101be57806379c65068146101ee57806395d89b411461020a576100cf565b806306fdde03146100d4578063095ea7b3146100f257806318160ddd1461012257806323b872dd14610140578063313ce56714610170578063395093511461018e575b600080fd5b6100dc6102d4565b6040516100e991906112c7565b60405180910390f35b61010c600480360381019061010791906110ac565b610366565b60405161011991906112ac565b60405180910390f35b61012a610389565b6040516101379190611429565b60405180910390f35b61015a6004803603810190610155919061105d565b610393565b60405161016791906112ac565b60405180910390f35b6101786103c2565b6040516101859190611444565b60405180910390f35b6101a860048036038101906101a391906110ac565b6103cb565b6040516101b591906112ac565b60405180910390f35b6101d860048036038101906101d39190610ff8565b610475565b6040516101e59190611429565b60405180910390f35b610208600480360381019061020391906110ac565b6104bd565b005b610212610522565b60405161021f91906112c7565b60405180910390f35b610242600480360381019061023d91906110ac565b6105b4565b60405161024f91906112ac565b60405180910390f35b610272600480360381019061026d91906110ac565b61069e565b60405161027f91906112ac565b60405180910390f35b6102a2600480360381019061029d91906110ac565b6106c1565b005b6102be60048036038101906102b99190611021565b610726565b6040516102cb9190611429565b60405180910390f35b6060600380546102e39061158d565b80601f016020809104026020016040519081016040528092919081815260200182805461030f9061158d565b801561035c5780601f106103315761010080835404028352916020019161035c565b820191906000526020600020905b81548152906001019060200180831161033f57829003601f168201915b5050505050905090565b6000806103716107ad565b905061037e8185856107b5565b600191505092915050565b6000600254905090565b60008061039e6107ad565b90506103ab858285610980565b6103b6858585610a0c565b60019150509392505050565b60006012905090565b6000806103d66107ad565b905061046a818585600160008673ffffffffffffffffffffffffffffffffffffffff1673ffffffffffffffffffffffffffffffffffffffff16815260200190815260200160002060008973ffffffffffffffffffffffffffffffffffffffff1673ffffffffffffffffffffffffffffffffffffffff16815260200190815260200160002054610465919061147b565b6107b5565b600191505092915050565b60008060008373ffffffffffffffffffffffffffffffffffffffff1673ffffffffffffffffffffffffffffffffffffffff168152602001908152602001600020549050919050565b600560009054906101000a900473ffffffffffffffffffffffffffffffffffffffff1673ffffffffffffffffffffffffffffffffffffffff163373ffffffffffffffffffffffffffffffffffffffff16141561051e5761051d8282610c8d565b5b5050565b6060600480546105319061158d565b80601f016020809104026020016040519081016040528092919081815260200182805461055d9061158d565b80156105aa5780601f1061057f576101008083540402835291602001916105aa565b820191906000526020600020905b81548152906001019060200180831161058d57829003601f168201915b5050505050905090565b6000806105bf6107ad565b90506000600160008373ffffffffffffffffffffffffffffffffffffffff1673ffffffffffffffffffffffffffffffffffffffff16815260200190815260200160002060008673ffffffffffffffffffffffffffffffffffffffff1673ffffffffffffffffffffffffffffffffffffffff16815260200190815260200160002054905083811015610685576040517f08c379a000000000000000000000000000000000000000000000000000000000815260040161067c906113e9565b60405180910390fd5b61069282868684036107b5565b60019250505092915050565b6000806106a96107ad565b90506106b6818585610a0c565b600191505092915050565b600560009054906101000a900473ffffffffffffffffffffffffffffffffffffffff1673ffffffffffffffffffffffffffffffffffffffff163373ffffffffffffffffffffffffffffffffffffffff161415610722576107218282610ded565b5b5050565b6000600160008473ffffffffffffffffffffffffffffffffffffffff1673ffffffffffffffffffffffffffffffffffffffff16815260200190815260200160002060008373ffffffffffffffffffffffffffffffffffffffff1673ffffffffffffffffffffffffffffffffffffffff16815260200190815260200160002054905092915050565b600033905090565b600073ffffffffffffffffffffffffffffffffffffffff168373ffffffffffffffffffffffffffffffffffffffff161415610825576040517f08c379a000000000000000000000000000000000000000000000000000000000815260040161081c906113c9565b60405180910390fd5b600073ffffffffffffffffffffffffffffffffffffffff168273ffffffffffffffffffffffffffffffffffffffff161415610895576040517f08c379a000000000000000000000000000000000000000000000000000000000815260040161088c90611329565b60405180910390fd5b80600160008573ffffffffffffffffffffffffffffffffffffffff1673ffffffffffffffffffffffffffffffffffffffff16815260200190815260200160002060008473ffffffffffffffffffffffffffffffffffffffff1673ffffffffffffffffffffffffffffffffffffffff168152602001908152602001600020819055508173ffffffffffffffffffffffffffffffffffffffff168373ffffffffffffffffffffffffffffffffffffffff167f8c5be1e5ebec7d5bd14f71427d1e84f3dd0314c0f7b2291e5b200ac8c7c3b925836040516109739190611429565b60405180910390a3505050565b600061098c8484610726565b90507fffffffffffffffffffffffffffffffffffffffffffffffffffffffffffffffff8114610a0657818110156109f8576040517f08c379a00000000000000000000000000000000000000000000000000000000081526004016109ef90611349565b60405180910390fd5b610a0584848484036107b5565b5b50505050565b600073ffffffffffffffffffffffffffffffffffffffff168373ffffffffffffffffffffffffffffffffffffffff161415610a7c576040517f08c379a0000000000000000000000000000000000000000000000000000000008152600401610a73906113a9565b60405180910390fd5b600073ffffffffffffffffffffffffffffffffffffffff168273ffffffffffffffffffffffffffffffffffffffff161415610aec576040517f08c379a0000000000000000000000000000000000000000000000000000000008152600401610ae3906112e9565b60405180910390fd5b610af7838383610fc4565b60008060008573ffffffffffffffffffffffffffffffffffffffff1673ffffffffffffffffffffffffffffffffffffffff16815260200190815260200160002054905081811015610b7d576040517f08c379a0000000000000000000000000000000000000000000000000000000008152600401610b7490611369565b60405180910390fd5b8181036000808673ffffffffffffffffffffffffffffffffffffffff1673ffffffffffffffffffffffffffffffffffffffff16815260200190815260200160002081905550816000808573ffffffffffffffffffffffffffffffffffffffff1673ffffffffffffffffffffffffffffffffffffffff1681526020019081526020016000206000828254610c10919061147b565b925050819055508273ffffffffffffffffffffffffffffffffffffffff168473ffffffffffffffffffffffffffffffffffffffff167fddf252ad1be2c89b69c2b068fc378daa952ba7f163c4a11628f55a4df523b3ef84604051610c749190611429565b60405180910390a3610c87848484610fc9565b50505050565b600073ffffffffffffffffffffffffffffffffffffffff168273ffffffffffffffffffffffffffffffffffffffff161415610cfd576040517f08c379a0000000000000000000000000000000000000000000000000000000008152600401610cf490611409565b60405180910390fd5b610d0960008383610fc4565b8060026000828254610d1b919061147b565b92505081905550806000808473ffffffffffffffffffffffffffffffffffffffff1673ffffffffffffffffffffffffffffffffffffffff1681526020019081526020016000206000828254610d70919061147b565b925050819055508173ffffffffffffffffffffffffffffffffffffffff16600073ffffffffffffffffffffffffffffffffffffffff167fddf252ad1be2c89b69c2b068fc378daa952ba7f163c4a11628f55a4df523b3ef83604051610dd59190611429565b60405180910390a3610de960008383610fc9565b5050565b600073ffffffffffffffffffffffffffffffffffffffff168273ffffffffffffffffffffffffffffffffffffffff161415610e5d576040517f08c379a0000000000000000000000000000000000000000000000000000000008152600401610e5490611389565b60405180910390fd5b610e6982600083610fc4565b60008060008473ffffffffffffffffffffffffffffffffffffffff1673ffffffffffffffffffffffffffffffffffffffff16815260200190815260200160002054905081811015610eef576040517f08c379a0000000000000000000000000000000000000000000000000000000008152600401610ee690611309565b60405180910390fd5b8181036000808573ffffffffffffffffffffffffffffffffffffffff1673ffffffffffffffffffffffffffffffffffffffff168152602001908152602001600020819055508160026000828254610f4691906114d1565b92505081905550600073ffffffffffffffffffffffffffffffffffffffff168373ffffffffffffffffffffffffffffffffffffffff167fddf252ad1be2c89b69c2b068fc378daa952ba7f163c4a11628f55a4df523b3ef84604051610fab9190611429565b60405180910390a3610fbf83600084610fc9565b505050565b505050565b505050565b600081359050610fdd816118f8565b92915050565b600081359050610ff28161190f565b92915050565b60006020828403121561100a57600080fd5b600061101884828501610fce565b91505092915050565b6000806040838503121561103457600080fd5b600061104285828601610fce565b925050602061105385828601610fce565b9150509250929050565b60008060006060848603121561107257600080fd5b600061108086828701610fce565b935050602061109186828701610fce565b92505060406110a286828701610fe3565b9150509250925092565b600080604083850312156110bf57600080fd5b60006110cd85828601610fce565b92505060206110de85828601610fe3565b9150509250929050565b6110f181611517565b82525050565b60006111028261145f565b61110c818561146a565b935061111c81856020860161155a565b6111258161161d565b840191505092915050565b600061113d60238361146a565b91506111488261162e565b604082019050919050565b600061116060228361146a565b915061116b8261167d565b604082019050919050565b600061118360228361146a565b915061118e826116cc565b604082019050919050565b60006111a6601d8361146a565b91506111b18261171b565b602082019050919050565b60006111c960268361146a565b91506111d482611744565b604082019050919050565b60006111ec60218361146a565b91506111f782611793565b604082019050919050565b600061120f60258361146a565b915061121a826117e2565b604082019050919050565b600061123260248361146a565b915061123d82611831565b604082019050919050565b600061125560258361146a565b915061126082611880565b604082019050919050565b6000611278601f8361146a565b9150611283826118cf565b602082019050919050565b61129781611543565b82525050565b6112a68161154d565b82525050565b60006020820190506112c160008301846110e8565b92915050565b600060208201905081810360008301526112e181846110f7565b905092915050565b6000602082019050818103600083015261130281611130565b9050919050565b6000602082019050818103600083015261132281611153565b9050919050565b6000602082019050818103600083015261134281611176565b9050919050565b6000602082019050818103600083015261136281611199565b9050919050565b60006020820190508181036000830152611382816111bc565b9050919050565b600060208201905081810360008301526113a2816111df565b9050919050565b600060208201905081810360008301526113c281611202565b9050919050565b600060208201905081810360008301526113e281611225565b9050919050565b6000602082019050818103600083015261140281611248565b9050919050565b600060208201905081810360008301526114228161126b565b9050919050565b600060208201905061143e600083018461128e565b92915050565b6000602082019050611459600083018461129d565b92915050565b600081519050919050565b600082825260208201905092915050565b600061148682611543565b915061149183611543565b9250827fffffffffffffffffffffffffffffffffffffffffffffffffffffffffffffffff038211156114c6576114c56115bf565b5b828201905092915050565b60006114dc82611543565b91506114e783611543565b9250828210156114fa576114f96115bf565b5b828203905092915050565b600061151082611523565b9050919050565b60008115159050919050565b600073ffffffffffffffffffffffffffffffffffffffff82169050919050565b6000819050919050565b600060ff82169050919050565b60005b8381101561157857808201518184015260208101905061155d565b83811115611587576000848401525b50505050565b600060028204905060018216806115a557607f821691505b602082108114156115b9576115b86115ee565b5b50919050565b7f4e487b7100000000000000000000000000000000000000000000000000000000600052601160045260246000fd5b7f4e487b7100000000000000000000000000000000000000000000000000000000600052602260045260246000fd5b6000601f19601f8301169050919050565b7f45524332303a207472616e7366657220746f20746865207a65726f206164647260008201527f6573730000000000000000000000000000000000000000000000000000000000602082015250565b7f45524332303a206275726e20616d6f756e7420657863656564732062616c616e60008201527f6365000000000000000000000000000000000000000000000000000000000000602082015250565b7f45524332303a20617070726f766520746f20746865207a65726f20616464726560008201527f7373000000000000000000000000000000000000000000000000000000000000602082015250565b7f45524332303a20696e73756666696369656e7420616c6c6f77616e6365000000600082015250565b7f45524332303a207472616e7366657220616d6f756e742065786365656473206260008201527f616c616e63650000000000000000000000000000000000000000000000000000602082015250565b7f45524332303a206275726e2066726f6d20746865207a65726f2061646472657360008201527f7300000000000000000000000000000000000000000000000000000000000000602082015250565b7f45524332303a207472616e736665722066726f6d20746865207a65726f20616460008201527f6472657373000000000000000000000000000000000000000000000000000000602082015250565b7f45524332303a20617070726f76652066726f6d20746865207a65726f2061646460008201527f7265737300000000000000000000000000000000000000000000000000000000602082015250565b7f45524332303a2064656372656173656420616c6c6f77616e63652062656c6f7760008201527f207a65726f000000000000000000000000000000000000000000000000000000602082015250565b7f45524332303a206d696e7420746f20746865207a65726f206164647265737300600082015250565b61190181611505565b811461190c57600080fd5b50565b61191881611543565b811461192357600080fd5b5056fea26469706673582212200fad0bd7c4740d4cc09464da4833dacd2e5a9c671322056d672bed77a34a639264736f6c63430008040033",
  "linkReferences": {},
  "deployedLinkReferences": {}
}